{
  "contractName": "BotFactory",
  "abi": [
    {
      "constant": true,
      "inputs": [
        {
          "name": "",
          "type": "uint256"
        }
      ],
      "name": "botToOwner",
      "outputs": [
        {
          "name": "",
          "type": "address"
        }
      ],
      "payable": false,
      "stateMutability": "view",
      "type": "function"
    },
    {
      "constant": true,
      "inputs": [
        {
          "name": "",
          "type": "address"
        }
      ],
      "name": "ownerToBot",
      "outputs": [
        {
          "name": "",
          "type": "uint256"
        }
      ],
      "payable": false,
      "stateMutability": "view",
      "type": "function"
    },
    {
      "constant": true,
      "inputs": [
        {
          "name": "id",
          "type": "uint256"
        }
      ],
      "name": "scanBotEnergy",
      "outputs": [
        {
          "name": "",
          "type": "uint64"
        }
      ],
      "payable": false,
      "stateMutability": "view",
      "type": "function"
    },
    {
      "constant": true,
      "inputs": [],
      "name": "botIndex",
      "outputs": [
        {
          "name": "",
          "type": "uint256"
        }
      ],
      "payable": false,
      "stateMutability": "view",
      "type": "function"
    },
    {
      "constant": true,
      "inputs": [
        {
          "name": "",
          "type": "uint256"
        }
      ],
      "name": "bots",
      "outputs": [
        {
          "name": "id",
          "type": "uint256"
        },
        {
          "name": "age",
          "type": "uint64"
        },
        {
          "name": "genes",
          "type": "uint256"
        },
        {
          "name": "energy",
          "type": "uint64"
        },
        {
          "name": "reputation",
          "type": "uint64"
        }
      ],
      "payable": false,
      "stateMutability": "view",
      "type": "function"
    },
    {
      "inputs": [],
      "payable": false,
      "stateMutability": "nonpayable",
      "type": "constructor"
    },
    {
      "anonymous": false,
      "inputs": [
        {
          "indexed": false,
          "name": "botID",
          "type": "uint256"
        },
        {
          "indexed": false,
          "name": "dna",
          "type": "uint256"
        }
      ],
      "name": "NewBot",
      "type": "event"
    },
    {
      "anonymous": false,
      "inputs": [
        {
          "indexed": false,
          "name": "botID",
          "type": "uint256"
        }
      ],
      "name": "StartBattle",
      "type": "event"
    }
  ],
  "bytecode": "0x6060604052341561000f57600080fd5b60008081905550610366806100256000396000f30060606040526004361061006d576000357c0100000000000000000000000000000000000000000000000000000000900463ffffffff1680630db9e942146100725780633ef8bc00146100d557806373a9e8ae146101225780638d459d911461016d578063f221ddb914610196575b600080fd5b341561007d57600080fd5b6100936004808035906020019091905050610225565b604051808273ffffffffffffffffffffffffffffffffffffffff1673ffffffffffffffffffffffffffffffffffffffff16815260200191505060405180910390f35b34156100e057600080fd5b61010c600480803573ffffffffffffffffffffffffffffffffffffffff16906020019091905050610258565b6040518082815260200191505060405180910390f35b341561012d57600080fd5b6101436004808035906020019091905050610270565b604051808267ffffffffffffffff1667ffffffffffffffff16815260200191505060405180910390f35b341561017857600080fd5b6101806102b3565b6040518082815260200191505060405180910390f35b34156101a157600080fd5b6101b760048080359060200190919050506102b9565b604051808681526020018567ffffffffffffffff1667ffffffffffffffff1681526020018481526020018367ffffffffffffffff1667ffffffffffffffff1681526020018267ffffffffffffffff1667ffffffffffffffff1681526020019550505050505060405180910390f35b60026020528060005260406000206000915054906101000a900473ffffffffffffffffffffffffffffffffffffffff1681565b60036020528060005260406000206000915090505481565b60008060018381548110151561028257fe5b906000526020600020906004020160030160009054906101000a900467ffffffffffffffff16905080915050919050565b60005481565b6001818154811015156102c857fe5b90600052602060002090600402016000915090508060000154908060010160009054906101000a900467ffffffffffffffff16908060020154908060030160009054906101000a900467ffffffffffffffff16908060030160089054906101000a900467ffffffffffffffff169050855600a165627a7a72305820b9c25a9279379ccc8cd47c721b434ae4328bda11f957eb820208cbe78960a8360029",
  "source": "pragma solidity ^0.4.17;\n\ncontract BotFactory {\n\n    event NewBot(uint botID, uint dna);\n    event StartBattle(uint botID);\n\n    function BotFactory() public {\n       botIndex = 0;\n   }\n\n   uint public botIndex;\n\n   struct Bot {\n        uint id;\n        uint64 age; // timestamp of the block when the bot was born\n        uint256 genes; // genes that makeup the bot's aesthetic\n        uint64 energy; // power to battle another bot\n        uint64 reputation; // overall game success\n    }\n\n    Bot[] public bots;\n\n    mapping (uint => address) public botToOwner;\n    mapping (address => uint) public ownerToBot;\n    mapping (address => uint) ownerBotCount; // (owner address => num bots they own)\n\n    function _createBot(uint _dna) internal returns (uint) {\n        uint id = bots.push(Bot(botIndex, uint64(now), _dna, 1000, 0)) - 1;\n        botIndex++;\n        botToOwner[id] = msg.sender;\n        ownerToBot[msg.sender] = id;\n        ownerBotCount[msg.sender]++;\n        NewBot(id, _dna);\n        return id; \n    }\n\n    function scanBotEnergy(uint id) public view returns(uint64){\n        uint64 energy = bots[id].energy;\n        return energy;\n    } \n}",
  "sourcePath": "/Users/Mamo/Desktop/EtherGame/contracts/BotFactory.sol",
  "compiler": {
    "name": "solc",
    "version": "0.4.18+commit.9cf6e910.Emscripten.clang"
  },
  "schemaVersion": "1.0.1",
  "updatedAt": "2018-01-09T19:02:09.747Z"
}